:020000040000FA
:10000000D005002065010000091500004112000024
:1000100000000000000000000000000000000000E0
:100020000000000000000000000000003516000085
:10003000000000000000000001160000371600005C
:10004000AD030000AF030000B1030000B3030000E4
:10005000AB03000000000000491700004B17000030
:10006000051500000000000033160000000000002D
:100070004512000000000000D9160000DB16000049
:100080000315000000000000DD160000DF16000070
:1000900000000000FF150000BF180000011500005F
:1000A000A303000007150000BD18000000000000B9
:1000B000A5030000FD15000031160000A703000095
:1000C00000F002F800F03EF80CA030C80838241800
:1000D0002D18A246671EAB4654465D46AC4201D180
:1000E00000F030F87E460F3E0FCCB6460126334274
:1000F00000D0FB1AA246AB46334318476C190000E8
:100100008C190000103A02D378C878C1FAD8520787
:1001100001D330C830C101D504680C6070470000BD
:100120000023002400250026103A01D378C1FBD813
:10013000520700D330C100D50B6070471FB51FBDFB
:1001400010B510BD00F0FAF81146FFF7F7FF01F007
:10015000B7FB00F012F903B4FFF7F2FF03BC00F0A5
:1001600019F900000748804707480047FEE7FEE707
:10017000FEE7FEE7FEE7FEE704480549054A064BB1
:100180007047000099160000C1000000D001002057
:10019000D0050020D0030020D003002001E004C0DF
:1001A000091F0429FBD28B0701D50280801CC907D7
:1001B00000D00270704700290BD0C30702D0027034
:1001C000401C491E022904D3830702D50280801CEB
:1001D000891EE3E70022EEE70022DFE700220309A1
:1001E0008B422CD3030A8B4211D300239C464EE052
:1001F00003460B433CD4002243088B4231D303090E
:100200008B421CD3030A8B4201D394463FE0C309BF
:100210008B4201D3CB01C01A524183098B4201D3D7
:100220008B01C01A524143098B4201D34B01C01AC2
:10023000524103098B4201D30B01C01A5241C3083A
:100240008B4201D3CB00C01A524183088B4201D3A9
:100250008B00C01A524143088B4201D34B00C01A95
:100260005241411A00D201465241104670475DE0AA
:10027000CA0F00D04942031000D34042534000222D
:100280009C4603098B422DD3030A8B4212D3FC22D6
:10029000890112BA030A8B420CD3890192118B4255
:1002A00008D3890192118B4204D389013AD092116B
:1002B00000E08909C3098B4201D3CB01C01A524126
:1002C00083098B4201D38B01C01A524143098B42EF
:1002D00001D34B01C01A524103098B4201D30B01D8
:1002E000C01A5241C3088B4201D3CB00C01A5241FD
:1002F00083088B4201D38B00C01A5241D9D24308E4
:100300008B4201D34B00C01A5241411A00D2014620
:10031000634652415B10104601D34042002B00D58A
:100320004942704763465B1000D3404201B500204C
:10033000C046C04602BD704770477047754600F022
:1003400025F8AE46050069465346C008C0008546FC
:1003500018B020B5FFF710FF60BC00274908B6466B
:100360000026C0C5C0C5C0C5C0C5C0C5C0C5C0C5C4
:10037000C0C5403D49008D46704710B50446C04693
:10038000C0462046FFF7E7FE10BD0000004870475A
:100390006C01002001491820ABBEFEE726000200D8
:1003A0007047704770477047704770477047704795
:1003B00070477047F0B502460B4600240025002028
:1003C000002100E101268E4034461E682640354655
:1003D000A54279D15E68022E0DD1906C4E07F70EC2
:1003E0000F26BE400746B74338464F07FF0E1E6B29
:1003F000BE40304390645E68042E08D1906C4E0776
:10040000F70E0F26BE400746B743384690645E6835
:10041000032E0DD1906C4E07F70E0F26BE400746F7
:10042000B74338464E07F70E0F26BE403043906460
:100430005E68002E08D110684F077F0F0126BE406E
:100440000746B743384610605E68012E0CD110682D
:100450004F077F0FBE400746B74338464F077F0F11
:100460000126BE40304310601E69012E12D1966BEA
:100470009F693E439663506B4F077F0F0126BE4036
:100480000746B74338464F077F0F1E69BE403043CB
:10049000506323E05E69012E17D1506B4F077F0F29
:1004A000BE400746B74338465063906B1026074658
:1004B000B74338469063506B36010746B74338461A
:1004C0005E693043506309E071E0506B4F077F0F66
:1004D0000126BE400746B74338465063566BF6B216
:1004E000002E05D0966B1F693F013E43966303E0E3
:1004F000966B1027BE439663D06B4F000326BE4019
:100500000746B74338464F009E68BE403043D0632D
:10051000506803268E400746B7433846DE688E4053
:1005200030435060106C01268E400746B743384672
:10053000DE698E4030431064506C01268E400746C1
:10054000B74338461E6A8E403043506401273F0748
:100550005E683E40BE4235D1106901268E40074696
:10056000B74338465E6A8E4030431061106A0126F8
:100570008E400746B74338469E6A8E40304310622D
:10058000DE6A002E02D0DE6A012E11D1906A0126A9
:100590008E400746B74338469062506A01268E4027
:1005A0000746B7433846DE6A8E403043506209E062
:1005B000906A01268E400746B743384601268E4092
:1005C00030439062491C082900D2FBE6F0BD0000D0
:1005D00001480068704700000C000020002906D088
:1005E0000268126804231A4303681A6005E002686F
:1005F000126804239A4303681A60704730B50346B3
:100600000C460225184600F00FF8002803D01868A1
:10061000C06820600125284630BD016809680822AD
:10062000914302681160704701460868006808221B
:100630001040C008704770B504460025002C01D159
:10064000012070BD607F002803D12077204600F094
:10065000D5F820680068402188432168086000F0D0
:1006600071FA06467D21C900FFF7B8FD05462269EB
:10067000D100D200A81AFFF7B1FD0546A0680128F5
:100680001DD02068006804210843216808602068A4
:100690008068E16849000843216888606069012832
:1006A00006D02068806801210843216888600CE03A
:1006B00020688068400840002168886005E0206864
:1006C000006804218843216808606068002808D019
:1006D000E8B2216848612068006901210843216867
:1006E0000861FF2191312069884206D220680068A4
:1006F000400840002168086005E02068006801218A
:100700000843216808602068006840210843216888
:1007100008602046FFF781FF0020206202206077FA
:100720000120A06100208CE7FFB581B004460E4691
:1007300017460025FF200090607F02285CD105202D
:1007400060771020A077002020620121204600F071
:100750006FF86946204600F091F80098082809D003
:100760000098102806D008206077A0692062012038
:1007700005B0F0BDFF200090F1B20122204600F04C
:1007800042F86946204600F079F80098402805D0E4
:1007900008206077A06920620120E9E70121204656
:1007A000FFF71CFF16E0FF2000902046FFF735FF03
:1007B0006946204600F062F80098502805D00820CD
:1007C0006077A06920620120D2E77919204600F005
:1007D00016F86D1C04988542E5D30121204600F0EF
:1007E00037F8A068002803D101212046FFF7F6FE64
:1007F000022060770020BBE70220B9E7704702685B
:1008000052680A70704770B505460C461646002EB1
:1008100002D00120044301E0FE2004402868446027
:100820000021284600F004F82846FFF7F6FE70BDC8
:10083000002906D00268126820231A4303681A6050
:1008400005E00268126820239A4303681A60704723
:1008500010B503460C46002C09D01868006810211A
:100860000843196808601846FFF7D7FE05E01868C6
:100870000068102188431968086010BDF3B581B085
:1008800005460026002702240A26FFF7A1FE074698
:1008900000BF28460299FFF7B1FE0446FFF798FE15
:1008A000C01BB04201D2022CF3D0012C01D1012097
:1008B000FEBD0020FCE700000348006803490978FA
:1008C00040180149086070470C0000201400002007
:1008D00010B5032000F004F800F02CF8002010BD43
:1008E00070B50446104801787D20C000FFF776FC03
:1008F000064631460D480068FFF770FC054600F0DB
:10090000A9FB002801D0012070BD042C07D221468C
:100910000020C04300F01CF80548046001E00120FD
:10092000F2E70020F0E700001400002000000020A3
:10093000100000207047000000BFC206D20E012147
:100940009140024A116000BF7047000000E100E0E2
:1009500070B504460D462946204600F013FE70BDD2
:1009600070B504460025022120680840022814D1F1
:10097000042120680840042807D169484068000A1B
:100980000002E16808436649486065480068000A5B
:100990000002A1680843624908602078C007C00FC0
:1009A000002853D06068012809D15D48806A012180
:1009B00009030840000B002823D1012070BD6068A6
:1009C000022808D15648C06A402108408009002802
:1009D00017D10120F2E76068042809D15048006B64
:1009E000012109030840000B00280AD10120E5E796
:1009F0004B48406B402108408009002801D101206C
:100A0000DCE700BF47484649403108624649606814
:100A10000843434948624348401E41494031086207
:100A200000BFFFF7D5FD0546606801280FD107E03C
:100A3000FFF7CEFD401B3D49884201D90320BDE7A9
:100A40003748406A0007000F0128F1D137E060689D
:100A500002280FD107E0FFF7BBFD401B3349884256
:100A600001D90320AAE72E48406A0007000F022898
:100A7000F1D124E0606804280FD107E0FFF7A8FD5A
:100A8000401B2A49884201D9032097E72448406A3D
:100A90000007000F0428F1D111E0606808280ED18A
:100AA00007E0FFF795FD401B2049884201D903204C
:100AB00084E71B48406A0007000F0828F1D1042191
:100AC00020680840042807D115484068000A000241
:100AD000E16808431249486011480068C0B2002824
:100AE0000BD000F043F846080D480068C1B230460C
:100AF000FFF774FB0E49086003E000F037F80C497B
:100B000008606068042802D06068082802D10A20C2
:100B1000084908700320FFF7E3FE00204EE70000BD
:100B2000000002409966AA550000695A8813000027
:100B300000000020140000200148006870470000F9
:100B40000000002010B508484068002808D0FFF7D2
:100B5000F3FF4408044841682046FFF73FFB10BDFF
:100B6000FFF7EAFFFBE70000000002400021002041
:100B70000B4A516A0A07120F012A04D0022A04D034
:100B8000042A07D103E0074807E0074805E04B20A7
:100B9000400202E00120C00300BF00BF7047000018
:100BA0000000024000366E0100127A0070B5044663
:100BB0000025022120680840022878D1FE48406ABA
:100BC0000007000F02280BD1FB48C06A40210840F3
:100BD000800900286BD0E068002868D1012070BD32
:100BE00000BFF648F44940310862E068022806D1A7
:100BF000F148006AF2490843EF49086229E0E068D9
:100C0000002809D1EC48006A02218843EC49891E7A
:100C10000843E94908621CE0E068202807D1E6485B
:100C2000006AE7491E310843E349086211E0E248DF
:100C3000006A02218843E249891E0843DE490862AE
:100C40000846006A20218843DD49891E0843DA49A5
:100C50000862DA48401ED8494031086200BFE068A7
:100C6000002812D0FFF7B4FC054606E0FFF7B0FC01
:100C7000401B642801D90320B1E7CF48C06A402156
:100C8000084080090028F1D011E0FFF7A1FC0546DB
:100C900006E0FFF79DFC401B642801D903209EE776
:100CA000C548C06A4021084080090028F1D1207859
:100CB000C007C00F00282ED0BF48406A0007000FB1
:100CC000012829D1BC48806A012109030840000B92
:100CD000002804D16068012801D001207FE700BF0F
:100CE000B648B5494031086207214902A06808406A
:100CF00088420BD0A0680840002807D02089000552
:100D0000000DAF49891E4018AB498862AB48401EB0
:100D1000A949403108626AE06068002840D000BFFD
:100D2000A648A5494031086207214902A068084049
:100D300088420BD0A0680840002807D02089000511
:100D4000000D9F49891E40189B4988629B48401EA0
:100D500099494031086200BF00BF401C08629648B4
:100D6000006A9749491E0843934908629348401E08
:100D700091494031086200BFFFF72AFC054606E0B2
:100D8000FFF726FC401B022801D9032027E78A48E9
:100D9000806A012109030840000B0028F0D026E0FA
:100DA00000BF86488449403108628348006A400891
:100DB00040008349891E08437F4908627F48401EDE
:100DC0007D494031086200BFFFF702FC054606E09E
:100DD000FFF7FEFB401B022801D90320FFE67648FF
:100DE000806A012109030840000B0028F0D1082186
:100DF00020680840082858D12069002856D000BF34
:100E00006E496D4A4032116200206B49096BC8057A
:100E1000C00D616908436A49891E0143664A11632E
:100E20006649491E644A4032116200BF00BF491C36
:100E3000116200206049096B0322920211400846AA
:100E4000218BC905C90D08435D49891E01435A4AD2
:100E500011635A49491E584A4032116200BF00BF0F
:100E6000481C114608625448006A5549891C0843C9
:100E7000514908625148401E1146086200BFFFF701
:100E8000A7FB054606E0FFF7A3FB401B022801D99C
:100E90000320A4E64848006B012109030840000B29
:100EA0000028F0D0012000F0ADFB26E000BF434851
:100EB0004149403108624048006A04218843404962
:100EC000891E08433C4908623C48401E3A4940316B
:100ED000086200BFFFF77CFB054606E0FFF778FBE2
:100EE000401B022801D9032079E63348006B012119
:100EF00009030840000B0028F0D1042120680840B5
:100F0000042875D100BF2D482B494031086289154E
:100F1000E069884207D12848406B2949FE310843DF
:100F20002549486344E0E069002819D12248406B14
:100F30000121890288432249891E08431E494863CA
:100F40000846406B891588431D49891E08431A4984
:100F500048630846406B1B4908431749486327E02C
:100F600001214902E06988420FD11348406B4910C2
:100F700088431349891E08430F4948630846406B5C
:100F8000114908430C49486312E00B48406BFF21AC
:100F9000013188430A49891E0843074948630846C6
:100FA000406B491588430649891E08430249486336
:100FB0000248401E004909E0000002409966AA5517
:100FC0000200695A0004695A0002695A40310862F5
:100FD00000BFE069002814D0FFF7FAFA054608E0E0
:100FE000FFF7F6FA401B1149884202D90320F6E5C3
:100FF0001AE00F48406B4021084080090028EFD0DC
:1010000012E0FFF7E5FA054607E0FFF7E1FA401BBB
:101010000649884201D90320E1E50548406B40219B
:10102000084080090028F0D10020D8E5881300008E
:101030000000024005480068401C0449086004485C
:101040000068401C0249086070470000040000204E
:101050000800002070B504462546681E09498842EC
:1010600001D901200CE0681E074948610321081FCF
:1010700000F088FA002004498861072008610020F8
:1010800070BD0000FFFFFF0000E000E010B5044667
:10109000002C01D1012010BDA07F002803D1607772
:1010A000204600F00AF80220A077211D206800F0F9
:1010B00017FB0120A0770020EDE770470146086884
:1010C000C068012210430A68D060086800680122E5
:1010D00010430A6810600020704710B50446002CC9
:1010E00001D1012010BD2D20005D002805D1002177
:1010F0002C200155204600F00FF824212D20015509
:10110000204600F087FB0020206320212D20015580
:101110002E2001550020E5E770470000FEB504468B
:101120000D4616461F46002001902D20005D202808
:101130007ED1002D01D0002E01D10120FEBD00BFC7
:101140002C20005D012801D10220F7E701212C208D
:10115000015500BF0020206321212D200155FFF7FC
:1011600037FA01902068006802210843216808606E
:101170002684668450E0608C401E60842069C0280C
:1011800035D1606901280CD12068006808218843A6
:1011900029782A4A515CC907090F08432168086069
:1011A0000FE0606902280CD120680068082188439C
:1011B0002978224A525C01219143C90008432168E1
:1011C000086028786D1C2168486000970022022181
:1011D0002046019B00F041FB002801D00320ADE731
:1011E00020684069022108432168486114E028789A
:1011F0006D1C216848600097002202212046019B57
:1012000000F02BFB002801D0032097E720684069FD
:101210000221084321684861608C0028ABD120215D
:101220002D20015500BF00212C20015500BF00E0FA
:1012300001E0002082E7022080E70000681900003A
:1012400000BFFEE77047000008B500BF2348806874
:101250000421084321498860084680680421084029
:10126000009000BF00BF00BF1C48C06808431B4976
:10127000C8600846C06804210840009000BF00BF55
:1012800010201749086002204860042008630020ED
:1012900008610120C8610862002088601148FFF7DA
:1012A00089F808200E49086002204860042008637D
:1012B0000C48FFF77FF810200B4988770B4808602F
:1012C0000020487701204860012107488160416182
:1012D00064210161FFF7AFF908BD00000000024082
:1012E000140100200018024048010020000C0040BA
:1012F00000B597B000BF20488068012108431E490F
:10130000886008468068C007C00F019000BF00BF1A
:1013100000BF0846C068C91408431749C86008469A
:10132000C068C9140840019000BF00BF08200A909F
:1013300001200B9000200D900E9011901290012032
:101340000C900AA90D48FFF735F80D4802904B2183
:10135000490105910B4803900021069104910791E2
:10136000089102A8FFF792FE1320FFF7E5FA02A802
:10137000FFF7A4FE17B000BD0000024000100240BD
:10138000003C004010270000F3B50026574F3E8078
:10139000574901263E8000BF0E464F1EB9B2002EAF
:1013A000FAD15449514F3E8000BF0E464F1EB9B28C
:1013B000002EFAD1009C00201EE000264B4F3E80FC
:1013C0004D4901263E8000BF0E464F1EB9B2002E89
:1013D000FAD1E607F60F002E01D0484900E0464951
:1013E0000026424F3E8000BF0E464F1EB9B2002E6F
:1013F000FAD16410461CB0B20828DEDB009D002044
:101400001CE03D490126394F3E8000BF0E464F1E6D
:10141000B9B2002EFAD1EE07F60F002E01D03649F0
:1014200000E036490026314F3E8000BF0E464F1E79
:10143000B9B2002EFAD16D10461CB0B20828E0DB1C
:10144000019A00201CE02C490126284F3E8000BF55
:101450000E464F1EB9B2002EFAD1D607F60F002E57
:1014600001D0264900E024490026204F3E8000BFDD
:101470000E464F1EB9B2002EFAD15210461CB0B221
:101480000828E0DB019B00201CE01B490126174FC8
:101490003E8000BF0E464F1EB9B2002EFAD1DE07C5
:1014A000F60F002E01D0144900E0144900260F4F1A
:1014B0003E8000BF0E464F1EB9B2002EFAD15B101F
:1014C000461CB0B20828E0DB00200BE009490026EA
:1014D000064F3E8000BF0E464F1EB9B2002EFAD115
:1014E000461CB0B20E28F1DBFCBD00001800002045
:1014F0006A950000B54A00004C090000E41B00009A
:1015000070477047704770477047000010B500285B
:1015100019DA1A4A03071B0F083B9B089B00D25895
:101520008307DC0EFF23A3409A438B071B0E84071F
:10153000E40EA3401A43114B0407240F083CA408EF
:10154000A4001A5118E00E4A03231B02D218830884
:101550009B00D2588307DC0EFF23A3409A438B07DE
:101560001B0E8407E40EA3401A43054B03242402F8
:101570001B198408A4001A5110BD00001CED00E0E6
:1015800000E100E010B5002819DA1A4A03071B0F22
:10159000083B9B089B00D2588307DC0EFF23A34027
:1015A0009A438B071B0E8407E40EA3401A43114B8A
:1015B0000407240F083CA408A4001A5118E00E4A9E
:1015C00003231B02D21883089B00D2588307DC0E2A
:1015D000FF23A3409A438B071B0E8407E40EA3400E
:1015E0001A43054B032424021B198408A4001A5132
:1015F00010BD00001CED00E000E100E07047704706
:101600007047000038B5044608490968C8087D21BC
:10161000C900FEF7E3FD6043009000BF00BF0098E3
:10162000411E00910028F9D138BD000000000020C3
:1016300070477047704710B5FFF73EF9FFF7FAFCA7
:1016400010BD000000B58DB0202105A8FEF7C4FD37
:1016500000200190029003900490012005900690D4
:101660000C480088079005A8FFF7A0FA002801D0D1
:10167000FEF79AFE072001900120029000200390BF
:10168000049001A8FFF76CF9002801D0FEF78CFE4A
:101690000DB000BDA00000180B480C4908620C48B2
:1016A0000A49403908620848401E0849086200207B
:1016B0000649403908604860881588600020C86085
:1016C00008610449886070479966AA554000024045
:1016D0000100695A00ED00E070477047704770479D
:1016E00010B500220268164B984202D0154B984262
:1016F00005D170241346A3431A464B681A43104B76
:10170000984202D00F4B984206D10324240213467C
:10171000A3431A46CB681A4380241346A3431A46B0
:101720004B691A4302608B68C3620B688362044B87
:10173000984201D10B6903630123436110BD00008E
:1017400000100040003C00407047704708B500BFE3
:101750002B4880680821084329498860084680682A
:1017600008210840009000BF00BF00BF2448C068A7
:10177000022108432249C8600846C0680221084087
:10178000009000BF00BF20201E4908600220486072
:101790000520086300200861C86108620120886094
:1017A0000020C8601848FEF705FE40201549086073
:1017B00002204860052008631348FEF7FBFD00BFC8
:1017C0000F48C068022108430D49C8600846C06838
:1017D00002210840009000BF00BF0C480C4908607F
:1017E0004B20C0014860002109488160402101610F
:1017F0000021416110218161FFF76FFC08BD0000ED
:1018000000000240AC000020001C02400004004028
:10181000E000002070B504462169A0680843A16972
:101820000843216809682D22120191430843216869
:101830000860FFF787F9A168490A491C4843054633
:10184000606841012846FEF7C9FC401E80B20121B4
:10185000090440182168886170BDFFB581B0044655
:101860000D4617460A9E1DE0701C00281AD0002E57
:1018700005D0FEF7ADFE0499401AB04212D9206897
:101880000068800880002168086020212D20015513
:101890002E20015500BF00212C20015500BF032040
:1018A00005B0F0BD206800692840A84201D10120A0
:1018B00000E00020B842D7D00020F1E77047704721
:1018C000FFF706F8FFF7BEFEFFF740FFFFF7BCFC8F
:1018D000FFF70EFD1B491C480068FEF77FFC04461D
:1018E000601E1A49884201D901200CE0601E184987
:1018F00048610321081FFFF709FE00201449886191
:10190000072008610020002801D000BFFEE717E093
:101910008023104AA0211048FEF706FF0F480068F8
:101920000F49884208D900200C49086014238022FE
:1019300008490C48FFF7F2FBFF210846FFF724FD9A
:10194000E6E7000040420F0000000020FFFFFF001C
:1019500000E000E02C0000204801002004000020EE
:10196000204E0000E0000020000101000100000105
:10197000010000010001010001000001000101005F
:10198000000101000100000101000001000101004F
:10199000000101000100000100010100010000013F
:1019A000010000010001010001000001000101002F
:1019B000000101000100000100010100010000011F
:1019C000010000010001010000010100010000010F
:1019D00001000001000101000100000100010100FF
:1019E00000010100010000010100000100010100EF
:1019F00000010100010000010001010001000001DF
:101A000001000001000101000001010001000001CE
:101A100001000001000101000100000100010100BE
:101A200000010100010000010001010001000001AE
:101A3000010000010001010001000001000101009E
:101A4000000101000100000101000001000101008E
:101A5000000101000100000100010100010000017E
:101A60000100000100010100881A000000000020B0
:101A70002C00000004010000B41A00002C0000201B
:101A8000A40500002001000000093D000000000046
:101A90000000000000000000040000000100000041
:101AA0000000000000000000000000000000000036
:041AB0000000000032
:04000005000000C136
:00000001FF
