:020000040000FA
:10000000F005002065010000D11100008D100000F6
:1000100000000000000000000000000000000000E0
:10002000000000000000000000000000CF120000EF
:100030000000000000000000C9120000D112000002
:100040006B0300006D0300006F03000071030000EC
:1000500069030000000000000515000007150000FE
:10006000CD11000000000000CD12000000000000D3
:1000700091100000000000001D1300001F1300007D
:10008000CB1100000000000021130000311300001C
:1000900000000000C71200007B160000C91100001C
:1000A00063030000CF11000079160000000000007B
:1000B00065030000C5120000CB12000067030000BA
:1000C00000F002F800F03EF80CA030C80838241800
:1000D0002D18A246671EAB4654465D46AC4201D180
:1000E00000F030F87E460F3E0FCCB6460126334274
:1000F00000D0FB1AA246AB46334318470417000052
:1001000024170000103A02D378C878C1FAD85207F1
:1001100001D330C830C101D504680C6070470000BD
:100120000023002400250026103A01D378C1FBD813
:10013000520700D330C100D50B6070471FB51FBDFB
:1001400010B510BD00F0DAF81146FFF7F7FF01F027
:1001500095FA00F0F2F803B4FFF7F2FF03BC00F0E9
:10016000F9F800000748804707480047FEE7FEE728
:10017000FEE7FEE7FEE7FEE704480549054A064BB1
:1001800070470000DD120000C1000000F0010020F7
:10019000F0050020F0030020F003002000220309F6
:1001A0008B422CD3030A8B4211D300239C464EE092
:1001B00003460B433CD4002243088B4231D303094E
:1001C0008B421CD3030A8B4201D394463FE0C30900
:1001D0008B4201D3CB01C01A524183098B4201D318
:1001E0008B01C01A524143098B4201D34B01C01A03
:1001F000524103098B4201D30B01C01A5241C3087B
:100200008B4201D3CB00C01A524183088B4201D3E9
:100210008B00C01A524143088B4201D34B00C01AD5
:100220005241411A00D201465241104670475DE0EA
:10023000CA0F00D04942031000D34042534000226D
:100240009C4603098B422DD3030A8B4212D3FC2216
:10025000890112BA030A8B420CD3890192118B4295
:1002600008D3890192118B4204D389013AD09211AB
:1002700000E08909C3098B4201D3CB01C01A524166
:1002800083098B4201D38B01C01A524143098B422F
:1002900001D34B01C01A524103098B4201D30B0118
:1002A000C01A5241C3088B4201D3CB00C01A52413D
:1002B00083088B4201D38B00C01A5241D9D2430824
:1002C0008B4201D34B00C01A5241411A00D2014661
:1002D000634652415B10104601D34042002B00D5CB
:1002E0004942704763465B1000D3404201B500208D
:1002F000C046C04602BD704770477047754600F063
:1003000025F8AE46050069465346C008C00085463C
:1003100018B020B5FFF730FF60BC00274908B6468B
:100320000026C0C5C0C5C0C5C0C5C0C5C0C5C0C504
:10033000C0C5403D49008D46704710B50446C046D3
:10034000C0462046FFF707FF10BD00000048704779
:100350009001002001491820ABBEFEE726000200F4
:1003600070477047704770477047704770477047D5
:100370007047F0B502460B460024002500200021FE
:1003800000E101268E4034461E6826403546A542CF
:1003900079D15E68022E0DD1906C4E07F70E0F26B4
:1003A000BE400746B74338464F07FF0E1E6BBE40A0
:1003B000304390645E68042E08D1906C4E07F70EAF
:1003C0000F26BE400746B743384690645E68032E4A
:1003D0000DD1906C4E07F70E0F26BE400746B7436F
:1003E00038464E07F70E0F26BE40304390645E68D5
:1003F000002E08D110684F077F0F0126BE40074628
:10040000B743384610605E68012E0CD110684F0764
:100410007F0FBE400746B74338464F077F0F012680
:10042000BE40304310601E69012E12D1966B9F6949
:100430003E439663506B4F077F0F0126BE40074631
:10044000B74338464F077F0F1E69BE4030435063A5
:1004500023E05E69012E17D1506B4F077F0FBE401E
:100460000746B74338465063906B10260746B7439C
:1004700038469063506B36010746B74338465E698D
:100480003043506309E071E0506B4F077F0F012646
:10049000BE400746B74338465063566BF6B2002E4F
:1004A00005D0966B1F693F013E43966303E0966B50
:1004B0001027BE439663D06B4F000326BE4007460D
:1004C000B74338464F009E68BE403043D063506803
:1004D00003268E400746B7433846DE688E403043D9
:1004E0005060106C01268E400746B7433846DE69DF
:1004F0008E4030431064506C01268E400746B7434F
:1005000038461E6A8E403043506401273F075E68BC
:100510003E40BE4235D1106901268E400746B743A2
:1005200038465E6A8E4030431061106A01268E4064
:100530000746B74338469E6A8E4030431062DE6AF3
:10054000002E02D0DE6A012E11D1906A01268E4063
:100550000746B74338469062506A01268E400746E8
:10056000B7433846DE6A8E403043506209E0906AF5
:1005700001268E400746B743384601268E40304359
:100580009062491C082900D2FBE6F0BD0246D36800
:100590000B40002B01D0012000E00020704700003C
:1005A00001480068704700001400002030B5034681
:1005B0000C460225184600F00FF8002803D01868F2
:1005C000C06820600125284630BD016809680822FE
:1005D000914302681160704701460868006808226C
:1005E0001040C008704770B504460025002C01D1AA
:1005F000012070BD607F002803D12077204600F0E5
:10060000C4F820680068402188432168086000F031
:1006100045F906467D21C900FFF7C0FD0546226960
:10062000D100D200A81AFFF7B9FD0546A06801283D
:100630001DD02068006804210843216808602068F4
:100640008068E16849000843216888606069012882
:1006500006D02068806801210843216888600CE08A
:1006600020688068400840002168886005E02068B4
:10067000006804218843216808606068002808D069
:10068000E8B22168486120680069012108432168B7
:100690000861FF2191312069884206D220680068F4
:1006A000400840002168086005E0206800680121DA
:1006B00008432168086020680068402108432168D9
:1006C00008602046FFF781FF00202062022060774B
:1006D0000120A06100208CE7FFB581B004460E46E2
:1006E00017460025FF200090607F02284BD1042090
:1006F00060771020A077002020620121204600F0C2
:1007000063F86946204600F085F80098082806D06E
:1007100008206077A0692062012005B0F0BDFF20AD
:100720000090F1B20022204600F030F869462046E1
:1007300000F070F80098182805D008206077A069AC
:1007400020620120E9E713E0FF200090795D204658
:1007500000F031F86946204600F05CF8009828283F
:1007600005D008206077A06920620120D5E76D1CC4
:1007700004988542E8D30121204600F035F8022094
:1007800060770020C9E70220C7E7704770B50546CB
:100790000C461646002E02D00120044301E0FE2044
:1007A0000440286844600021284600F00DF82846DF
:1007B000FFF70BFF70BD10B503460C461868446088
:1007C0001846FFF702FF10BD002906D00268126824
:1007D00020231A4303681A6005E002681268202388
:1007E0009A4303681A60704710B503460C46002C04
:1007F00009D0186800681021084319680860184675
:10080000FFF7E3FE05E018680068102188431968C7
:10081000086010BDF3B581B005460026002702240C
:100820000A26FFF7BDFE074600BF28460299FFF7DC
:10083000BDFE0446FFF7B4FEC01BB04201D2022C3D
:10084000F3D0012C01D10120FEBD0020FCE7000007
:100850000348006803490978401801490860704757
:10086000140000201C00002000BFC206D20E01218F
:100870009140024A116000BF7047000000E100E0B3
:1008800070B504460D462946204600F0DFFC70BDD9
:1008900001480068704700000000002010B50848BB
:1008A0004068002808D0FFF7F3FF44080448416877
:1008B0002046FFF773FC10BDFFF7EAFFFBE70000DF
:1008C0000000024002480068401C0149086070476F
:1008D000040000207047704710B504465049206856
:1008E00088421FD104214F48FFF750FE00281AD03C
:1008F0004D480068006A4D4908404B490968086244
:1009000049480068006A02210843474909680862AB
:10091000002045490968486245480078102108438D
:10092000434908707AE000213F4800F09BFA4149B2
:1009300008803D480068006A3C4908403A49096817
:10094000086239480068006A37490968086238480F
:1009500000781021084000285AD0354800788021BE
:100960000840002841D033480088FF219131884257
:100970000EDD30480088AF218900884208DA2E4811
:10098000006840002C4908600846006808603FE0A5
:10099000284800882949884211DD26480088E1213D
:1009A000C90088420BDA24480068400022490860E8
:1009B00008460068012108431F49086028E01D48D7
:1009C00000881F49884223DD1A4800881D49884253
:1009D0001EDA1D480078401C1B4908701448007836
:1009E000F02108401249087012E0124800881749A7
:1009F00088420DDD0F4800881549884208DA0C4806
:100A00000078802108430A49087000200E490870C8
:100A100007480078102188430549087010BD000080
:100A2000001000400010024070010020F5FF00009F
:100A3000240000202600002028000020DC05000003
:100A40002E0900005A0A00002C000020CC100000E3
:100A50005C120000F8B504460D46164600BF607FE4
:100A6000012801D10220F8BD0120607700BF0220DB
:100A7000A077002E12D1EB686A682968206800F020
:100A80009BFC206880690C2188432168886120686C
:100A90008069A9680843216888613FE0042E14D169
:100AA000EB686A682968206800F0B8FC20688069F3
:100AB0000321890288432168886120688069A968C8
:100AC000090208432168886128E0082E12D1EB68EA
:100AD0006A682968206800F0C7FC2068C0690C219A
:100AE00088432168C8612068C069A96808432168F3
:100AF000C86113E0EB686A682968206800F0D9FCD7
:100B00002068C0690321890288432168C861206880
:100B1000C069A968090208432168C8610120A0775B
:100B200000BF0020607700BF00BF9CE710B50446FF
:100B3000002C01D1012010BDA07F002803D16077D7
:100B4000204600F00BF80220A077211D206800F05D
:100B5000F1FB0120A0770020EDE7000010B58EB07A
:100B6000044600BF18488068012108431649886080
:100B700008468068C007C00F009000BF00BF00BFDC
:100B80000846C068091508430F49C8600846C06890
:100B900009150840009000BF00BF0420019002200A
:100BA000029001200390002005900890099001A96F
:100BB0000648FFF7DEFB01211220FFF761FE12203D
:100BC000FFF752FE0EB010BD0000024000100240C0
:100BD00030B504460D46002D06D0042D0BD0082D4F
:100BE00010D00C2D1CD114E02068C06802210843ED
:100BF0002168C86015E02068C068042108432168A6
:100C0000C8600EE02068C068082108432168C860F9
:100C100007E02068C068102108432168C86000E030
:100C200000BF00BF01222946206800F0B7FB206802
:100C300000680121084321680860002030BD10B51C
:100C400004462068006902210840400800281CD0A2
:100C50002068C06808404008002816D0481F216856
:100C6000086101202077206880698007800F0028B4
:100C700003D02046FFF730FE05E0204600F0C3F821
:100C8000204600F0C1F80020207720680069042188
:100C90000840800800281DD02068C06808408008EF
:100CA000002817D0C84321680861022020772068F7
:100CB0008069032109020840002803D02046FFF77D
:100CC0000BFE05E0204600F09EF8204600F09CF860
:100CD000002020772068006908210840C00800280B
:100CE0001CD02068C0680840C008002816D0C8433F
:100CF00021680861042020772068C0698007800F80
:100D0000002803D02046FFF7E7FD05E0204600F06D
:100D10007AF8204600F078F80020207720680069F3
:100D200010210840000900281DD02068C068084034
:100D30000009002817D0C8432168086108202077DF
:100D40002068C069032109020840002803D020461A
:100D5000FFF7C2FD05E0204600F055F8204600F000
:100D600053F80020207720680069C007C00F0121D8
:100D70004840484000280CD02068C06808404840DF
:100D80004840002805D0C81E21680861204600F0B0
:100D90003DF82068006980210840C00900280BD078
:100DA0002068C0680840C009002805D0C8432168F1
:100DB00008612046FFF78EFD206800694021084049
:100DC000800900280BD02068C068084080090028EE
:100DD00005D0C84321680861204600F06BF8206800
:100DE000006920210840400900280BD02068C06815
:100DF00008404009002805D0C84321680861204602
:100E0000FFF769FD10BD704770470000134A016885
:100E1000914222D1124909788022114000291CD028
:100E20000F490978102291430D4A11701146097833
:100E30000907090F0D2904DA11460978491C1170B8
:100E40000BE00749097880229143054A1170114649
:100E50000978F0221140024A1170704700100040DA
:100E6000240000200246002300BF507F012801D14A
:100E7000022070470120507700BF002906D00429C6
:100E800007D0082908D00C290CD108E01068436B62
:100E900009E01068836B06E01068C36B03E010681C
:100EA000036C00E000BF00BF00BF0020507700BF10
:100EB0001846DEE7704710B50446002C01D101202A
:100EC00010BD2D20005D002805D100212C200155EA
:100ED000204600F00FF824212D200155204600F077
:100EE00077FB0020206320212D2001552E20015565
:100EF0000020E5E770470000FFB583B004460D46CB
:100F00001746002002902E20005D202871D1002D70
:100F100001D0002F02D1012007B0F0BD00BF2C206E
:100F2000005D012801D10220F6E701212C200155A6
:100F300000BF0020206322212E200155FFF730FB47
:100F40000290206800680121084321680860278515
:100F5000678588E0608D401E60852069C0285FD16C
:100F600006980090002201212046029B00F053FBCE
:100F7000002801D00320CFE7206840690121084301
:100F80002168486120684068C6B26069002802D1C3
:100F90002E706D1C67E06069012818D1F0B23A49E3
:100FA000095C20680068042210408008814202D158
:100FB0002E706D1C57E0E0212E2001550220206389
:100FC00000BF00212C20015500BF0120A4E760696B
:100FD00002281BD1F0B22C49095C20680068042269
:100FE0001040820801209043814203D12E706D1C75
:100FF00039E046E0E0212E2001550220206300BFA9
:1010000000212C20015500BF012085E7E0212E2082
:10101000015500BF00212C20015500BF01207BE7B6
:1010200006980090002201212046029B00F0F3FA6E
:10103000002801D003206FE72068406901210843A0
:10104000216848616069002809D0E0212E200155FF
:1010500000BF00212C20015500BF01205CE7206863
:10106000406828706D1C608D002800D072E7202138
:101070002E20015500BF00212C20015500BF00206B
:101080004AE7022048E700000017000000BFFEE723
:101090007047000008B500BF23488068042108435A
:1010A000214988600846806804210840009000BFFC
:1010B00000BF00BF1C48C06808431B49C860084601
:1010C000C06804210840009000BF00BF10201749ED
:1010D00008600220486004200863002008610120A5
:1010E000C8610862002088601148FFF742F90820B3
:1010F0000E49086002204860042008630C48FFF78E
:1011000038F910200B4988770B4808600020487791
:10111000012048600121074881604161642101612B
:10112000FFF761FA08BD000000000240180100202E
:10113000001802404C010020000C004000B585B0B2
:1011400000BF1D48C0680121890208431A49C860D0
:101150000846C06809150840009000BF00BF174846
:10116000174908604B2149011548C16015481449C9
:101170004860002112480161816041618161FFF78F
:10118000D5FC002001900120029000200390032054
:101190000490002201A90A48FFF75CFC00210848DE
:1011A000FFF716FD06480068C0680121084304499E
:1011B0000968C86005B000BD000002400010004092
:1011C000700100201027000070477047704770477B
:1011D0007047000010B5002819DA1A4A03071B0FE0
:1011E000083B9B089B00D2588307DC0EFF23A340DB
:1011F0009A438B071B0E8407E40EA3401A43114B3E
:101200000407240F083CA408A4001A5118E00E4A51
:1012100003231B02D21883089B00D2588307DC0EDD
:10122000FF23A3409A438B071B0E8407E40EA340C1
:101230001A43054B032424021B198408A4001A51E5
:1012400010BD00001CED00E000E100E010B500283A
:1012500019DA1A4A03071B0F083B9B089B00D25858
:101260008307DC0EFF23A3409A438B071B0E8407E2
:10127000E40EA3401A43114B0407240F083CA408B2
:10128000A4001A5118E00E4A03231B02D218830847
:101290009B00D2588307DC0EFF23A3409A438B07A1
:1012A0001B0E8407E40EA3401A43054B03242402BB
:1012B0001B198408A4001A5110BD00001CED00E0A9
:1012C00000E100E070477047704770477047704713
:1012D00010B5FFF7BDFAFFF7F5FA10BD0B480C4942
:1012E00008620C480A49403908620848401E08490B
:1012F0000862002006494039086048608815886007
:101300000020C86008610449886070479966AA5542
:10131000400002400100695A00ED00E0704770474C
:1013200010B50248FFF78BFC10BD000070010020D3
:101330007047000010B500220268164B984202D098
:10134000154B984205D170241346A3431A464B68A7
:101350001A43104B984202D00F4B984206D10324F7
:1013600024021346A3431A46CB681A43802413462B
:10137000A3431A464B691A4302608B68C3620B6829
:101380008362044B984201D10B69036301234361DB
:1013900010BD000000100040003C004030B50023AC
:1013A00001248C402346046A9C430462046A154667
:1013B0008D402C43046230BDF0B50C460021002561
:1013C000066A7608760006628169056A114EB042A7
:1013D00002D0114EB04201D1012600E00026002EBD
:1013E00005D0890889000E461643314601E00126E2
:1013F0003143F0260F46B74339461E01F0273E40E1
:1014000031430A262F46B7433D4626403543816186
:101410000562F0BD00100040003C0040F0B50C46F5
:1014200000210025066A1027BE4306628169056A0D
:10143000032636020F46B7433946160231430F26BC
:1014400036030F46B74339461E030F273F033E407E
:101450003143A0262F46B7433D462601A0273E40F4
:10146000354381610562F0BDF0B50C4600210025D1
:10147000066AFF270137BE430662C169056A89080B
:1014800089000E4616433146F0260F46B7433946CB
:101490001E01F0273E403143012676022F46B74316
:1014A0003D46260201277F023E403543C161056269
:1014B000F0BDF0B50C4600210025066A01273F0368
:1014C000BE430662C169056A032636020F46B7436A
:1014D0003946160231430F2636030F46B7433946C5
:1014E0001E030F273F033E403143012676032F465C
:1014F000B7433D46260301277F033E403543C16184
:101500000562F0BD7047704708B500BF2B48806882
:101510000821084329498860084680680821084056
:10152000009000BF00BF00BF2448C06802210843EC
:101530002249C8600846C06802210840009000BFE8
:1015400000BF20201E490860022048600520086373
:1015500000200861C8610862012088600020C8601E
:101560001848FEF706FF4020154908600220486031
:10157000052008631348FEF7FCFE00BF0F48C06853
:10158000022108430D49C8600846C068022108408E
:10159000009000BF00BF0C480C4908604B20C00100
:1015A00048600021094881604021016100214161BA
:1015B00010218161FFF77FFC08BD000000000240A0
:1015C000B0000020001C024000040040E4000020A5
:1015D00070B504462169A0680843A16908432168E1
:1015E00009682D2212019143084321680860FFF722
:1015F00055F9A168490A491C4843054660684101FC
:101600002846FEF7CBFD401E80B201210904401898
:101610002168886170BDFFB581B004460D4617464C
:101620000A9E1DE0701C00281AD0002E05D0FEF77F
:10163000B7FF0499401AB04212D9206800688008A8
:1016400080002168086020212D2001552E200155A1
:1016500000BF00212C20015500BF032005B0F0BDC4
:10166000206800692840A84201D1012000E0002044
:10167000B842D7D00020F1E770477047FFF744FF2A
:10168000FFF708FDFFF75AFD7D21C90015480068E6
:10169000FEF784FD0446601E1349884201D90120EB
:1016A0000CE0601E114948610321081FFFF792FDFD
:1016B00000200E498861072008610020002801D021
:1016C00000BFFEE70CE01423802209490948FFF718
:1016D00013FC8023084AA0210848FEF7FDFF00BF45
:1016E000F1E7000000000020FFFFFF0000E000E045
:1016F00010000020E4000020300000204C010020F9
:1017000000010100010000010100000100010100D1
:1017100001000001000101000001010001000001C1
:1017200001000001000101000001010001000001B1
:1017300000010100010000010100000100010100A1
:101740000100000100010100000101000100000191
:101750000001010001000001010000010001010081
:101760000001010001000001010000010001010071
:101770000100000100010100000101000100000161
:101780000100000100010100000101000100000151
:101790000001010001000001010000010001010041
:1017A0000001010001000001010000010001010031
:1017B0000100000100010100000101000100000121
:1017C0000001010001000001010000010001010011
:1017D0000100000100010100000101000100000101
:1017E00001000001000101000001010001000001F1
:1017F00000010100010000010100000100010100E1
:10180000201800000000002030000000040100004B
:101810005018000030000020C0050000200100002A
:1018200000093D0000000000000000000000000072
:1018300000000000000000000400000001000000A3
:101840000000000000000000000000000000000098
:04000005000000C136
:00000001FF
